:1000000029C000003AC0000038C0000036C000001F
:1000100034C0000032C0000030C000002EC000001C
:100020002CC000002AC0000028C0000026C000002C
:1000300024C0000022C0000020C000001EC000003C
:100040001CC000001AC0000018C0000016C000004C
:1000500014C0000011241FBECFE5D8E0DEBFCDBF25
:1000600010E0A0E6B0E0E4EEF1E002C005900D92F1
:10007000A437B107D9F789D0B3C0C2CF0F931F936C
:10008000DF93CF93CDB7DEB72A970FB6F894DEBFD4
:100090000FBECDBFDE011196EAE6F0E08AE00190E6
:1000A0000D928150E1F79E012A5F3F4F6CE271E0B3
:1000B0008E010F5F1F4FAE01455F5F4FF9018081D9
:1000C00088BB88EB9BE0FB013197F1F70197D9F7EB
:1000D000D8018C918BBB88EB9BE0FB013197F1F74A
:1000E0000197D9F711964A175B0799F72F5F3F4F92
:1000F0004217530719F780E090E02A960FB6F8945C
:10010000DEBF0FBECDBFCF91DF911F910F9108953C
:10011000DF93CF93CDB7DEB72A970FB6F894DEBF43
:100120000FBECDBFDE011196E0E6F0E08AE001905F
:100130000D928150E1F78A8588BB88EB9BE02CE229
:1001400031E0F9013197F1F70197D9F7DE01119606
:100150004CE251E09E01255F3F4F8C918BBB88EBB9
:100160009BE0FA013197F1F70197D9F71196A217A1
:10017000B30799F780E090E02A960FB6F894DEBFB7
:100180000FBECDBFCF91DF910895FF920F931F93C4
:10019000CF93DF938FEF8ABB87BB84BBFF24F3949D
:1001A000CCE2D1E002E014E0F5BA88EB9BE0FE017E
:1001B0003197F1F70197D9F761DF05BB88EB9BE039
:1001C000FE013197F1F70197D9F7A2DF15BB88EB54
:1001D0009BE0FE013197F1F70197D9F74FDFE4CFAC
:0401E000F894FFCFC1
:1001E400044000E40848D06022F4044000E40848D5
:0401F400D06022F4C1
:00000001FF
