:100000000C942A000C9434000C9434000C943400AA
:100010000C9434000C9434000C9434000C94340090
:100020000C9434000C9434000C9434000C94340080
:100030000C9434000C9434000C9434000C94340070
:100040000C9434000C9434000C9434000C94340060
:100050000C94340011241FBECFE5D8E0DEBFCDBF25
:100060000E94DF010C94F9010C940000DF93CF9300
:1000700000D000D00F92CDB7DEB789836A834B835F
:100080008981282F30E03D832C838C819D810097CE
:1000900031F02C813D812130310589F160C08B81A7
:1000A0008130A1F4AAE3B0E0EAE3F0E08081482FD8
:1000B0008A81282F30E081E090E0022E02C0880F74
:1000C000991F0A94E2F7842B8C9349C08B81882373
:1000D00009F045C0AAE3B0E0EAE3F0E08081482FF0
:1000E0008A81282F30E081E090E0022E02C0880F44
:1000F000991F0A94E2F7809584238C9330C08981FC
:100100008130A1F4A7E3B0E0E7E3F0E08081482F7D
:100110008A81282F30E081E090E0022E02C0880F13
:10012000991F0A94E2F7842B8C9319C0EBE3F0E05B
:1001300080818823A1F4A7E3B0E0E7E3F0E08081C9
:10014000482F8A81282F30E081E090E0022E02C003
:10015000880F991F0A94E2F7809584238C930F905F
:100160000F900F900F900F90CF91DF910895DF9334
:10017000CF9300D000D00F92CDB7DEB789836A83CA
:100180004B838981282F30E03D832C838C819D8196
:10019000009731F02C813D812130310589F15EC01D
:1001A0008B818130A1F4ABE3B0E0EBE3F0E0808140
:1001B000482F8A81282F30E081E090E0022E02C093
:1001C000880F991F0A94E2F7842B8C9347C08B8188
:1001D000882309F043C0ABE3B0E0EBE3F0E08081BB
:1001E000482F8A81282F30E081E090E0022E02C063
:1001F000880F991F0A94E2F7809584238C932EC070
:1002000089818130A1F4A8E3B0E0E8E3F0E08081E7
:10021000482F8A81282F30E081E090E0022E02C032
:10022000880F991F0A94E2F7842B8C9317C0898159
:100230008823A1F4A8E3B0E0E8E3F0E08081482F50
:100240008A81282F30E081E090E0022E02C0880FE2
:10025000991F0A94E2F7809584238C930F900F9056
:100260000F900F900F90CF91DF910895DF93CF9370
:1002700000D000D0CDB7DEB78A838A81282F30E046
:100280003C832B838B819C81009731F02B813C81B7
:100290002130310531F009C0E9E3F0E08081898344
:1002A00004C0E6E3F0E08081898389810F900F909C
:1002B0000F900F90CF91DF910895DF93CF9300D0EF
:1002C00000D0CDB7DEB789836A838981282F30E0DB
:1002D0003C832B838B819C8181309105D1F02B81D4
:1002E0003C81223031052CF48B819C81009761F098
:1002F0001EC02B813C812230310581F08B819C8195
:100300008330910581F013C0EAE3F0E08A818083B5
:100310000EC0E7E3F0E08A81808309C0EAE3F0E001
:100320008A81808304C0EAE3F0E08A8180830F90B1
:100330000F900F900F90CF91DF910895DF93CF939F
:1003400000D000D0CDB7DEB789836A838981282F9A
:1003500030E03C832B838B819C8181309105D1F0EF
:100360002B813C81223031052CF48B819C810097BC
:1003700061F01EC02B813C812230310581F08B81E0
:100380009C818330910581F013C0EBE3F0E08A811A
:1003900080830EC0E8E3F0E08A81808309C0EBE34C
:1003A000F0E08A81808304C0EBE3F0E08A818083FF
:1003B0000F900F900F900F90CF91DF910895DF93E2
:1003C000CF930F92CDB7DEB780E060E00E945D0171
:1003D00080E06FEF0E949E0181E06FEF0E945D015F
:1003E00080E00E943601898381E069810E949E013C
:0603F000F7CFF894FFCFE7
:00000001FF
